:020000040800F2
:100000000050002021020008270200082B020008EF
:100010009D020008A1020008E9020008000000009B
:100020000000000000000000000000003103000894
:10003000350300080000000039030008E909000842
:100040004D0300084D0300084D0300084D03000850
:100050004D0300084D0300084D0300084D03000840
:100060004D0300084D0300084D0300084D03000830
:100070004D0300084D0300084D0300084D03000820
:100080004D0300084D0300084D0300084D03000810
:100090004D0300084D0300084D0300084D03000800
:1000A0004D0300084D0300084D0300084D030008F0
:1000B0004D0300084D0300084D0300084D030008E0
:1000C0004D0300084D0300084D0300084D030008D0
:1000D0004D0300084D0300084D0300084D030008C0
:1000E0004D0300084D0300084D0300080000000008
:1000F0000000000000000000000000000000000000
:1001000000000000000000005FF808F100B583B0B7
:1001100000F0AAF9304B314A1360314A1360314B79
:10012000314A32498B4204D21168196004330432D7
:10013000F7E72A4B1A682E4B9A4200D0FEE7284B6D
:100140001A682C4B9A42F9D1234B2B4A13602B4A45
:1001500013602B4B02E000221A600433294A9342B9
:10016000F9D3254B1B6813B9244B1B6803B1FEE779
:1001700000F086F9694601A800F022F9224C234BD1
:10018000E41AA4100025AC4214DC214C214BE41AE3
:10019000A4100025AC4213DC0099019800F0F8FC93
:1001A00005461D4C1D4BE41AA410002C0EDC2846FD
:1001B00000F0E2F8154B53F8253098470135E2E797
:1001C000144B53F8253098470135E3E7013C134BB6
:1001D00053F824309847E8E7BABADECA0000002096
:1001E0008400002000000020F8B5000888000020EE
:1001F0007856341232547698880000202801002066
:10020000880000202C0100207803000878030008F3
:1002100078030008780300087803000878030008D2
:1002200008B5FFF773FF00BEFEE71EF0040F0CBF1A
:10023000EFF30880EFF309807146414A10472DE93A
:10024000F04182B004468846124B5E6B9F6B9D6AFC
:100250001B6B13F0020F03D00E4BDB6A002B0CDB81
:100260000D4800F0B5F8CDF800803B4632462946EF
:10027000204600F009F900BEFEE74BF6AB6100F046
:100280007DF90028ECD0034B4FF00042DA6202B057
:10029000BDE8F08100ED00E09815000800BEFEE723
:1002A0001EF0040F0CBFEFF30880EFF309807146D6
:1002B000244A10472DE9F04182B004468846084B95
:1002C0005E6B9F6B9D6A074800F082F8CDF8008056
:1002D0003B4632462946204600F0D6F800BEFEE7EF
:1002E00000ED00E0A81500081EF0040F0CBFEFF3AE
:1002F0000880EFF309807146134A10472DE9F04159
:1003000082B004468846084B5E6B9F6B9D6A074827
:1003100000F05EF8CDF800803B4632462946204684
:1003200000F0B2F800BEFEE700ED00E0B4150008F2
:1003300000BEFEE700BEFEE700BEFEE7704700001D
:100340003F020008B5020008FD02000800BEFEE7FB
:10035000F8B500080000002088000020F8B500086B
:100360000000000000000000880000202C01002098
:08037000000000000000000085
:10037800FEE7000008B503460C4A12685AB10B4A5A
:100388001068033323F003030344094A934206D851
:10039800064A136008BD054A06491160EFE700F0F8
:1003A80039FC0C2303604FF0FF30F3E78C0000208A
:1003B800004C00202C01002001230360014B0B603E
:1003C800704700BF040000200FB400B583B004AB31
:1003D80053F8042B01938021064800F04DFC0028B7
:1003E80003DD0146034800F037F803B05DF804EB7D
:1003F80004B07047940000202DE9F04385B004460E
:100408000F4643560BB10E461EE0042528462146EA
:10041800ABBE0446384605B0BDE8F08314F9011BAD
:1004280004AA1A4402F8101C0133AB42F6D304AAFA
:100438001344002203F8102C4FF00408E946404604
:100448004946ABBE8046761B002EE3D03546102EBB
:1004580028BF10250023E8E708B5FFF7CDFF08BD42
:1004680008B500F0FDF8024A024B9A6008BD00BFCB
:100478000000000800ED00E008B500F019F908BD1B
:10048800F8B504460D4617461E462748FFF79CFF59
:1004980021682648FFF798FF61682548FFF794FF11
:1004A800A1682448FFF790FFE1682348FFF78CFF15
:1004B80021692248FFF788FF61692148FFF784FF17
:1004C800A1692048FFF780FFE1691F48FFF77CFF1B
:1004D8001E48FFF779FF29461D48FFF775FF1D4C99
:1004E800E16A1D48FFF770FF216B1C48FFF76CFF9E
:1004F800E16B1B48FFF768FF15F0800F0AD115F470
:10050800004F0CD11748FFF75FFF06991648FFF711
:100518005BFFF8BD39461548FFF756FFEFE7314650
:100528001348FFF751FFEDE77C1400088C1400080E
:100538009C140008AC140008BC140008CC14000873
:10054800DC140008EC140008FC1400080C15000862
:100558001815000800ED00E02815000838150008F7
:100568004815000878150008801500085815000877
:100578006815000883691A888A4201D000207047EC
:100588000268033A012A03D80233836101207047C5
:100598000020704782B00023019300932C4A13680F
:1005A80043F4803313602A4B1B6803F40033009331
:1005B800019B01330193009B1BB9019BB3F5A06F0D
:1005C800F1D1234B1B6813F4003F06D0012300939D
:1005D800009B012B04D002B0704700230093F7E77B
:1005E8001C4B1A6842F010021A601A6822F00302C3
:1005F8001A601A6842F002021A60A3F580535A681A
:100608005A605A685A605A6842F480625A605A6856
:1006180022F47C125A605A6842F4E8125A601A6846
:1006280042F080721A600A4B1B6813F0007FFAD000
:10063800074B5A6822F003025A605A6842F00202D5
:100648005A60034B5B6803F00C03082BF9D1C2E72F
:10065800001002400020024008B5FFF79BFF08BDCC
:1006680008B5104B1A6842F001021A6059680E4A20
:100678000A405A601A6822F0847222F480321A60A2
:100688001A6822F480221A605A6822F4FE025A601C
:100698004FF41F029A60FFF7DFFF044B4FF0006230
:1006A8009A6008BD001002400000FFF800ED00E06D
:1006B8001F4B5B6803F00C03042B15D0082B17D0D5
:1006C8001BB11C4B1C4A1A6002E01A4B1A4A1A60EA
:1006D800174B5B68C3F30313184AD35CDAB21549A6
:1006E8000B68D3400B607047124B134A1A60EFE750
:1006F8000F4A53685268C3F38343023312F4803FAE
:100708000AD00B4A526812F4003F0BD00C4A02FB85
:1007180003F3084A1360DBE7094A02FB03F3054ABF
:100728001360D5E7044A02FB03F3024A1360CFE7DC
:10073800001002401C00002000127A000C0000206B
:1007480000093D0010B4012824D018B1022841D076
:1007580010BC7047072910D90F29F9D8A1F108044E
:10076800E4B2A4000F23A3402A48016821EA030346
:1007780002FA04F119430160EAE789000F2303FA3A
:1007880001F0254C236823EA000302FA01F119431A
:100798002160DDE7072910D90F29D9D8A1F1080070
:1007A800C0B280000F2383401C4C216821EA030358
:1007B80002FA00F119432160CAE789000F2303FAFE
:1007C80001F0174C236823EA000302FA01F11943E8
:1007D8002160BDE7072910D90F29B9D8A1F108036D
:1007E800DBB29B000F2098400E4C216821EA0000E4
:1007F80002FA03F101432160AAE789000F2303FAF3
:1008080001F0094C236823EA000302FA01F11943B5
:1008180021609DE70408014000080140040C0140E4
:10082800000C01400410014000100140012818D0BC
:1008380010B1022829D07047012A0AD0002A2FD1E6
:10084800012303FA01F11B4A136823EA0103136029
:100858007047012303FA01F1164A13680B4313602A
:100868007047012A09D0DAB9012303FA01F1124AC3
:10087800136823EA010313607047012303FA01F1A7
:100888000D4A13680B4313607047012A09D03AB91F
:10089800012303FA01F1094A136823EA01031360EB
:1008A8007047012303FA01F1044A13680B431360EC
:1008B800704700BF0C0801400C0C01400C100140AF
:1008C800034B4FF480321A60043301221A607047D8
:1008D800001002401F291CD801280BD010B1022893
:1008E80010D07047012303FA01F10A4A13680B4339
:1008F80013607047012303FA01F1074A13680B4399
:1009080013607047012303FA01F1044A13680B438B
:1009180013607047141002401C1002401810024067
:10092800134B1A6842F001021A601A6842F0020278
:100938001A601A6842F004021A601A6822F08002EB
:100948001A601A6822F400721A601A6822F40062A7
:100958001A6000225A601A6822F038021204120C37
:100968001A601A681A601A6842F040021A607047E2
:100978000030014038B505460C46002211461046A5
:10098800FFF754FF074BDD60064B9B6813F0800FA1
:10099800FAD1044BDB682370012200210846FFF7D7
:1009A80045FF38BD00300140014B00221A607047F6
:1009B80010E000E0094B58601A6842F001021A6022
:1009C800064B1B6813F4803FFAD0044B1A6822F0D8
:1009D80001021A6000225A609A60704710E000E035
:1009E80008B50A4B1B785BB9094B1A6822F002025A
:1009F8001A601A6822F001021A6000225A609A608E
:100A0800044B1B689847024B1B6808BD1401002063
:100A180010E000E01801002010B582B00446012261
:100A280002210020FFF702FF0DF107012046FFF722
:100A3800A1FF02B010BD10B582B004460022022109
:100A48001046FFF7F3FE0DF107012046FFF792FF6E
:100A580002B010BD08B5012211460020FFF7E6FEDE
:100A68006420FFF7A7FF002201211046FFF7DEFEF2
:100A78000120FFF79FFF012211460020FFF7D6FE55
:100A88006420FFF797FF002201211046FFF7CEFEF2
:100A98006420FFF78FFF012211460020FFF7C6FEF2
:100AA8000948FFF787FF1120FFF7C5FF0748FFF741
:100AB80081FF3A20FFF7BFFF0520FFF7ADFF292090
:100AC800FFF7B9FF08BD00BFC0D40100F04902001C
:100AD80038B505462A20FFF7AEFF0020FFF79CFF38
:100AE8000020FFF799FF0020FFF796FF7F20FFF710
:100AF80093FF2B20FFF79FFF0020FFF78DFF0020BB
:100B0800FFF78AFF0020FFF787FF9F20FFF784FF8A
:100B18002C20FFF790FF00240AE035F81400000AA3
:100B2800FFF77AFF15F81400FFF776FF0134A4B237
:100B3800B4F5A04FF1D338BD08B52820FFF77BFFE7
:100B480008BD0000094B40F241329A60DA6842F071
:100B58000402DA60DA6842F00802DA60DA6842F41D
:100B68000052DA6000221A60704700BF0038014066
:100B7800044B1B6813F0200FFAD0024B5868C0B220
:100B8800704700BF0038014008B5FFF799FE022101
:100B98000846FFF79FFE0C210220FFF79BFE0E215F
:100BA8000220FFF797FE022201210020FFF7CAFD6D
:100BB800022211460020FFF7C5FD09220521002069
:100BC800FFF7C0FD092207210020FFF7BBFD0B221C
:100BD80009210020FFF7B6FD04220A210020FFF7B3
:100BE800B1FDFFF7E1FEFFF79BFEFFF7ABFFFFF755
:100BF80031FF04E0FFF72EFF0548FFF769FFFFF715
:100C0800B7FF6528F6D06B28F9D1FFF795FFF6E70F
:100C1800C4150008014B1868704700BF2000002069
:100C280030B5141E05469BB0184605DA8B234FF0E5
:100C3800FF302B601BB030BD4FF40273ADF80C30A1
:100C48000CBF234604F1FF33029305934FF6FF735D
:100C580000910491ADF80E3002461E9B6946284665
:100C680000F072F8431CBCBF8B232B60002CE1D032
:100C78000022009B1A70DDE707B5009313460A4669
:100C8800014603480068FFF7CBFF03B05DF804FB9B
:100C9800200000202DE9F0478E6882469E420C46CF
:100CA8009046994637D88A8912F4906F31D002233A
:100CB800256809696F1A656905EB450595FBF3F524
:100CC80009F101033B449D4238BF1D46530530D509
:100CD800294600F035FB064650B90C234FF0FF308B
:100CE800CAF80030A38943F04003A381BDE8F08728
:100CF8003A46216900F0B4FAA38923F4906343F0DB
:100D08008003A38126613E4426604E466561ED1B43
:100D1800A5604E4500D94E4632464146206800F04F
:100D2800AAFAA36800209B1BA36023681E442660C0
:100D3800DCE72A4600F05EFB06460028E2D121697E
:100D4800504600F0B1FAC8E72DE9F04F9DB0039383
:100D58008B8980461D060C4616460FD50B696BB964
:100D6800402100F0EDFA2060206128B90C23C8F872
:100D780000304FF0FF30C7E0402363610023099340
:100D880020238DF8293030234FF0010B8DF82A30BD
:100D980037463D4615F8013B0BB1252B3ED1B7EB45
:100DA800060A0BD05346324621464046FFF772FFEB
:100DB800013000F0A480099B534409933B78002B31
:100DC80000F09D8000234FF0FF32CDE90523049306
:100DD80007938DF853301A932F46052217F8011BF5
:100DE8004F4800F02FFA049BD0B9D90644BF2022FF
:100DF8008DF853201A0744BF2B228DF853202A78E8
:100E08002A2A15D02F4600200A25079A394611F8B4
:100E1800013B303B092B4DD9B8B10FE02F46B8E75D
:100E28003F4A3D46801A0BFA00F018430490D3E776
:100E3800039A111D12680391002A01DB079204E04E
:100E4800524243F00203079204933B782E2B0CD1B5
:100E58007B782A2B33D1039B02371A1D1B68039218
:100E6800002BB8BF4FF0FF3305932E4D032239787E
:100E7800284600F0E7F938B14023401B03FA00F098
:100E8800049B0137034304933978062226487E1CC5
:100E98008DF8281000F0D6F9002838D0234B13BB62
:100EA800039B073323F0070308330393099B4B4441
:100EB80009936DE705FB023201200F46A6E70023E0
:100EC8000A25194601370593384610F8012B303AA0
:100ED800092A03D9002BC8D00591C6E705FB0121D3
:100EE80001230746F0E703AB00932246104B04A901
:100EF8004046AFF30080B0F1FF3F8146D6D1A389C9
:100F08005B063FF536AF09981DB0BDE8F08F03AB1F
:100F180000932246064B04A9404600F081F8EAE710
:100F2800C4B50008CAB50008CEB500080000000026
:100F38009D0C00082DE9F04791461F468A680B6909
:100F480006469342B8BF1346C9F8003091F84320CB
:100F58000C46DDF8208012B10133C9F8003023684F
:100F6800990642BFD9F800300233C9F80030256825
:100F780015F0060507D104F1190AE368D9F800202D
:100F88009B1AAB4229DC94F843302268003318BF1F
:100F9800012392062ED404F1430239463046C04755
:100FA800013021D02368E56803F00603042B18BF3D
:100FB8000025D9F800204FF0000908BFAD1AA36832
:100FC800226908BF25EAE5759342C4BF9B1AED184C
:100FD8001A344D451AD1002008E0012352463946FB
:100FE8003046C047013003D14FF0FF30BDE8F087ED
:100FF8000135C2E73020E11881F843005A1C94F803
:1010080045102244023382F84310C4E701232246E4
:1010180039463046C0470130E6D009F10109D8E722
:101028002DE9F04301F1430C0C46097E85B06E2989
:101038001746064698460C9A00F0B38022D86329D2
:1010480036D00AD8002900F0B980582900F08380EA
:1010580004F1420584F8421032E0642901D069297C
:10106800F6D120681368050603F104012AD51B6828
:101078001160002B03DA2D225B4284F843206F486D
:101088000A2239E0732900F09D8008D86F2920D002
:101098007029DDD1236843F02003236003E075291C
:1010A80017D07829D4D17823654884F8453055E09D
:1010B800136804F14205191D1B68116084F8423059
:1010C80001238CE01B6810F0400F116018BF1BB2A1
:1010D800CFE713682568181D1060280601D51B681E
:1010E80002E06806FBD51B886F2914BF0A22082274
:1010F8005248002184F843106568002DA560C0F2AD
:101108009580216821F004012160002B3DD1002D3C
:1011180040F08E806546082A0BD12368DB0708D586
:10112800236962689A42DEBF302305F8013C05F165
:10113800FF35ACEB05032361CDF800803B4603AADD
:1011480021463046FFF7F6FE01304DD14FF0FF3013
:1011580005B0BDE8F083394884F845101368216864
:101168001D1D1B6815600A060BD5CA0744BF41F050
:10117800200121601BB9226822F02002226010227F
:10118800B7E74D0648BF9BB2EFE76546B3FBF2F100
:1011980002FB1133C35C05F8013D0B460029F5D16C
:1011A800B9E713682568181D6169106028061B686F
:1011B80001D5196002E06A06FBD51980002365464F
:1011C8002361B9E71368191D11601D686268002161
:1011D800284600F037F808B1401B60606368236157
:1011E800002384F84330A7E723692A463946304666
:1011F800C0470130AAD023689B0713D4E068039B3B
:101208009842B8BF1846A3E701234A4639463046F4
:10121800C04701309AD00135E368039A9B1AAB4264
:10122800F2DCEBE7002504F11909F5E7002BACD156
:10123800037804F1420584F842306CE7D5B500081C
:10124800E6B5000810B5C9B202449042034601D180
:10125800002303E01C7801308C42F6D1184610BDFB
:1012680010B5431E0A44914200D110BD11F8014B3C
:1012780003F8014FF7E7884210B501EB020307D8DE
:10128800421E99420AD011F8014B02F8014FF8E7C3
:101298008342F5D98118D21AD34200D110BD13F870
:1012A800014D01F8014DF7E738B50546002943D04F
:1012B80051F8043C0C1F002BB8BFE41800F0D0F81C
:1012C8001E4A1368104633B9636014602846BDE8A7
:1012D800384000F0C6B8A3420BD92168621893427F
:1012E80001BF1A685B685218226063600460EDE70A
:1012F80013465A680AB1A242FAD919685818A04286
:101308000BD120680144581882421960DED1106858
:101318005268014419605A60D8E702D90C232B603F
:10132800D4E7206821188A4201BF11685268091859
:10133800216062605C60C9E738BD00BF1C01002005
:1013480070B5CD1C25F0030508350C2D38BF0C25CC
:10135800002D064601DBA94203D90C233360002087
:1013680070BD00F07DF8214A1468214691B9204CDF
:1013780023681BB9304600F063F8206029463046E0
:1013880000F05EF8431C24D10C233046336000F093
:1013980068F8E4E70B685B1B18D40B2B0FD90B60BC
:1013A800CC18CD50304600F05CF804F10B00231D3A
:1013B80020F00700C31AD3D05A42E250D0E74B6856
:1013C8008C4216BF636013600C46EBE70C46496815
:1013D800CCE7C41C24F00304A04205D0211A3046EF
:1013E80000F02EF80130CFD02560DBE71C0100208B
:1013F80020010020F8B5074614460E4621B9BDE87D
:10140800F8401146FFF79CBF22B9FFF74DFF25466C
:101418002846F8BD00F026F8A0420FD221463846EB
:10142800FFF78EFF05460028F2D031462246FFF727
:1014380017FF31463846FFF737FFE9E73546E7E754
:1014480038B50023054C054608462360FEF792FF91
:10145800431C02D1236803B12B6038BD240100204E
:101468007047704751F8043C181F002BBCBF0B583D
:10147800C0187047537461636B206672616D653A7A
:101488000A000000205230203D2020253038580A1C
:1014980000000000205231203D2020253038580A15
:1014A80000000000205232203D2020253038580A04
:1014B80000000000205233203D2020253038580AF3
:1014C8000000000020523132203D20253038580AD3
:1014D80000000000204C52203D2020253038580ABA
:1014E80000000000205043203D2020253038580AB5
:1014F8000000000020505352203D20253038580A63
:10150800000000004653522F4641523A0A0000009C
:101518002043465352203D2020253038580A0000E9
:101528002048465352203D2020253038580A0000D4
:101538002044465352203D2020253038580A0000C8
:101548002041465352203D2020253038580A0000BB
:10155800204D4D464152203D20253038580A000084
:101568002042464152203D2020253038580A0000AC
:101578004D6973630A000000204C522F4558435FA1
:1015880052455455524E3D20253038580A00000027
:101598005B486172644661756C745D0A0000000006
:1015A8005B4275734661756C745D0A005B557361C7
:1015B80067654661756C745D0A00000035A576ADF7
:1015C80018BE39C6F9BDD8B5F8BD159D0519052150
:1015D800452186294521C2102319242144210421AB
:1015E8000419242145214521662186298629862139
:1015F8006621662965294521442124214521452163
:10160800452145214521252145216521C7318629C7
:1016180086296621862186218629A729A729662168
:10162800662986296629A731E831E7318629CB4A18
:101638005DE7DFFFDEFFDFFFFBF6F09B16DD36E53B
:1016480073C494C487516B72AC7A90A32E8BCB6A07
:1016580099D6FEF7DEFFFFFF75AD2419C831C831F2
:10166800A729E83166218729C731662166216621C5
:10167800662166216621662145214521862186212C
:10168800E31086216621C731C831A729C831C8317E
:10169800E831E831E831C829C729E831E829E831D3
:1016A800E831E831E831C7318729862966214621A2
:1016B80045218629A629A729A629A62955AD96AD8B
:1016C80018BE19C6F8BDD8B5F9BD56A546212521BD
:1016D800662186294521C210231944212421242169
:1016E80004192419242145216621862166216621B1
:1016F8004521452145214421242104212421252156
:101708002421252125212521662986298629662146
:1017180066216621662186218629A72987296621CF
:101728008729862946218629E831283AC729EB5294
:101738007DE7DFFFBEFFDFFFFCFECF93B4CCD5DC37
:101748002FA30E932E8B8C72CD822E93B09B119C5F
:101758005CEFFFFFDEFFDEFF9AD66529A831C831AE
:10176800C831E8318729A729A72966298629862922
:1017780086296621662166216621662165218629DA
:10178800041904198629A729A729C729A729C8310F
:10179800E831E831E831E831E831E831E829E83181
:1017A800E831E831C731A7298729662966216621EA
:1017B80066218629862986298629862996B5D7BD50
:1017C80018BE18BEF8BDD8BD19BEB8B5A7310519E1
:1017D800462986294521C2100319231924212421C9
:1017E800041904190419452165216521662165211B
:1017F800452145214521442124212421041924215E
:1018080024212421242104194521662966298629B1
:1018180086298629662166218621862987296621C7
:101828008629872946216629C731293AA729CB5213
:101838005CE7DEFFBFFFDFFF7DFF109C73CC74CC3D
:1018480033CCEE920E8BE959AC7A0E8B2E8BB3AC5F
:10185800DEFFFFFFFEFFDFFFBEF708426729C83142
:10186800C831A731A729A7296629A729A729A72900
:10187800862966216521452166216621452186291B
:101888004521A308862986296621A7298729C831E1
:10189800E831E831E831E831E831C731E829C729CA
:1018A80008320832C729A729A72966296629662187
:1018B800662186298629862986298629B7B5F8BD0D
:1018C80018C6F8BDF8BDF8BDF9BD19BE093AC41867
:1018D800452166292421A210031923190421242152
:1018E8000419E31804192519452145218621662183
:1018F80065214521452145214421242124212521F3
:101908002421242104190419252145216629862921
:10191800862986296621662166218629A7296621C6
:101928006621872986296629A7290832A629AA4A6D
:101938001CDFDEFFDFFFDFFFDFFF72AC73CC74D488
:1019480091BB70AB0A6AAC728C72CD824B72D4B404
:10195800FFFFFEF7FFFFFFFFFFFF2D6B2519C831C3
:10196800C8318729A72987298629A731A731A72917
:1019780086296621662166216621662145218629F8
:101988008629A208452166216621A7298729C72912
:10199800E831C831C831E831E831C729E729C72912
:1019A80008320832A729A729C7318729662966215D
:1019B80066218629862986298629A729D7BD18C69A
:1019C80019C619C6F8BDF9BDF9BD5AC66A4AA310A9
:1019D800252166292421C3102421442104212421FE
:1019E800041903190419452165214521662165213A
:1019F800652145214521442124212421041924213C
:101A08002421252124210419452145214521452149
:101A180066216621662166218629A629A7296629C5
:101A28006621862987298629A729E831C729AA4A4C
:101A3800FBDEDFFFDFFFBEFFDFFF14B5D1BBF6EC37
:101A480091BB70AB4B72095AAC724F8BE961D7CD21
:101A5800FFFFFEF7FEF7DFFFDFFF929CE410C831BF
:101A6800A7298729A7298629A731A729A729872947
:101A78008629662186298629862986296521662957
:101A88008629E418E4106621862987298729C72929
:101A9800C831C829C831E8310832E831E831C729E6
:101AA80008320832A729A729C73187298629662934
:101AB8006621862986298629A729C731F8BD18C62F
:101AC80039C619C6F9BD19BE19C69BCE0D63A31038
:101AD800252166292421C310241924212421242105
:101AE80024210419241945216521662165216521D0
:101AF8004521452144212421242124212421242154
:101B0800242124212421041924214521452145216A
:101B180065216621662166218629862986298729E5
:101B28008629662966296621A729083AC7318A4283
:101B3800DBD6FFFFBEFFBEFFDFFFB6CDF2C3D5E4A5
:101B4800F2CB2FA3EE8AC8518B6A4F8BE959FBEE73
:101B5800FFFFFFFFDEF7BEFFFFFFF8C50519A72946
:101B6800A729A729C8318729C7318729A7298729FC
:101B780086298629862986296621652165214521A8
:101B880086294521C3104521A72987298729A729FF
:101B9800C729C729C831E8310832E831E831E729CF
:101BA800E831E831C729A729A7298729872986295C
:101BB8006621862986298629A629A729F8BD18BE5F
:101BC80019C639C6D8BD19C63AC6DCD6D073C410F2
:101BD800462166292421C31024190319242124210C
:101BE8002421242124212421452165216521452101
:101BF8006521452124212421242104214421442133
:101C080004190419041904192421252166296521B8
:101C18006521662966216621662166216621A72934
:101C2800A629862186216621A7290832C729494283
:101C38009ACEFFFFBEFFDEFFFFFF99DEB1C394DC43
:101C4800F2C390AB4B726B6A6B6A2E8B4E839EFF0E
:101C5800FEF7FFFFDEFFDFFFFFFF3CE7E831662905
:101C6800C731A729A731A72987298729862987293D
:101C78008629862966214521452145216629452150
:101C880086298629C3100419A62986298729872920
:101C9800A729A729C829E831E831E831E831E82936
:101CA800E831E831C729A729A729A729A72986291B
:101CB800662166216621862986298629F8BDF8BD10
:101CC80019C619C6D8BD19C65ACEFDDE3284E41825
:101CD800462966292421E31844214421242104218A
:101CE8000419242124212419242145214521452191
:101CF80045214521242104190419031924212421EB
:101D0800E318E31804190419452145214521452103
:101D18004521452166296621452166216621A72995
:101D2800A7298629A72986298629E731A729283AB4
:101D380079CEFFFFBEFFDFFFDFFF1BEFD1CB16ED34
:101D480053C46F9BAC7A4A6A2E8BAC7A56BDFFFFA0
:101D5800FFF7FEF7BEFFFFFFBEFFFFFFCB52662176
:101D6800C83187298729A7294621872966218629F5
:101D7800862986296621452166218629662986299C
:101D8800862986290419C310662966218729862988
:101D98008629A729A729A729A729A729C729C73194
:101DA800C729C729C731C731A729A729A729662164
:101DB80045214521662166218629862918C618BE2F
:101DC800F8BD19C619C619C67BCEBCD6D494C4189A
:101DD8004621C731E418C31044210319042104190A
:101DE8000419242104192419242145216529452190
:101DF80024212421442124210419E318041924212D
:101E080004190419041904192421452145214521DF
:101E18004521662966296621452145218629862985
:101E280086218629A7298621A729083AE831083A70
:101E380039C6FFFFBEFFBEFFFFFF7DF790C394DCEE
:101E480073C42E8B4E8B8F934B726B7219D6BEF761
:101E5800FEEFFEF7DEFFBFFFBEF7FFF77284E41068
:101E6800A729C731862986298629A731A72986293E
:101E78008629862986296521652186298629652955
:101E88006529A73125218208662145218629462111
:101E98008629A729A729C729E831E8310832E83176
:101EA800E831083208320832E831E831C729A72971
:101EB80086298629662186298629A73139C618C622
:101EC80019C619C619C63AC67BCEBCD615A5C418FC
:101ED800041966292421E318442124212421041902
:101EE80024212421242124214521652165294521F6
:101EF800442145214521242124210419E3180419EA
:101F0800E318E3180319E418242125214521452164
:101F180045216629652145214521452166296621F6
:101F28006621862986296621A729E831A729E83963
:101F380018C6FFFFBEFFDFFFFFFF7DF712CC53CCB3
:101F480011ACD09BAC724A6AA8612E9335BD7DEF67
:101F5800FFF7DEF7DFFFDFFFDEF7FFF7D7B5452135
:101F6800A72986298729A72966216629A7298629D5
:101F78006621662166214521662186296629452133
:101F8800252186298629C3102521862966296521C8
:101F98008629A72986298729C831C831C731C73179
:101FA800C731C731C729A729A729A729872986297A
:101FB80066216621652166298629862939C619C6BA
:101FC80019C639C63AC65ACE7BCE7BD677AD05211F
:101FD800C41825210419E3180319031924212421FD
:101FE8002421242124212421442165294521242137
:101FF800242124212421242104190419E318041973
:10200800E318E3180319E318242145214521452144
:1020180065296629652945214521662166296521A5
:1020280065218621862166218621E831A73109426A
:10203800F8BDFFFFBEF7FFFFDEFF7DEFCD9AB4CC02
:10204800B09BAB726B6A26492A720E9352A4FBDED0
:10205800FFF7BEF7DFFFDFFFFFFFFFEF3CDFC73112
:1020680086298629A729C73186298729A729862964
:1020780066216621662165216621A62965296629CA
:1020880004196529A7310419C310A62966296621F0
:1020980086298629662166218729A729C731C7315C
:1020A800E831E831C729A729A729C7298629862918
:1020B80086216621452145216629862919C619C622
:1020C80019C63AC67BCE9BD67BCE5BCED8BD6729D8
:1020D800052125210419A210E3180319242124211C
:1020E800242124212421242124214521242124219F
:1020F8002421242124210419031904190419242151
:10210800E318E3180319E318242145214521452143
:10211800652966296629652966298629652965212B
:1021280065216621862166218629E831C831294240
:1021380097B5FFFFBEF7FFFFDEFFBEF76B8A2E9B4A
:102148006F93AC72C859E9618C8A2F9BB09BF8CD0C
:10215800BDF7DEFFDFFFBEFFFFFFFFEFDFF7AB4A94
:102168004521A629A729A731A729C8318729862962
:10217800862986298629862986298629662966291F
:102188000419252166292521A208662966296629B8
:10219800662966296621662987298729C731C731B3
:1021A800E831E831E831E831E831E831A729A729F1
:1021B800A7298629662166216629862918C619C68F
:1021C80019C639C67BCE9BD69BD65BCE19C6E839D5
:1021D80005216629E418A210242124212421242180
:1021E800242124212421242124212421442124219F
:1021F8002421242124210419041904190319041978
:10220800E318E318E318C3100419452124214521D4
:10221800452166296629652966298629652965294A
:1022280065216621662166218729E831A73109429F
:1022380055ADFFFFBEFFFFFFDEFFFFFFD4C4B0A315
:1022480093BC2E8BC8594B728C82CE924F9BD4B4C0
:10225800BAE6DEFFFFFFBEFFFFFFDEEFFFFF307CC9
:102268000419C731A6298729A729A729A7298729B2
:102278008729A6298629862985218629662945212F
:102288002521452145216629E31024198629862917
:10229800662946296629672987298731A729A72911
:1022A800A729C729E831E831E831E831C729C72922
:1022B800C729A629862966296629862919C619C61D
:1022C80019C6F9C53ACE9BD69BD67BCE7BCE6B4A38
:1022D800C4186629E418A2102421031924212421F2
:1022E800242124212421242124212421442124219E
:1022F8002421242124210419031904190319041978
:10230800E318E318E318E3180419452124212521CB
:10231800452165294521452145214521652965290D
:102328006521652166216621A729E8398731094297
:1023380055ADFFFFFFFFFFFFDEF7FFFFB7D5F1AB9E
:10234800B4CC8C828859E9618C82AD922FA3F1AB11
:10235800B7D57DF7FFFFDEFFFFFFBEF7FFFFB6AD86
:102368002419A729A729A729A7298729A729A72998
:1023780087298629662166216521852166294521C7
:1023880066296629252186292421C31066298629DC
:1023980066294521662967298729A731A729A729F9
:1023A800A729C729C731E831C731C731A729A729C4
:1023B800A6298629862966296629662939C639C63D
:1023C80019C6F9BD19C65BCE7BCE5ACE9BD62E63F5
:1023D80083102521E418A2100319031924212421AC
:1023E80024212421242124212421242124212421BD
:1023F8002421242104190319E318E31803192421BB
:10240800031904190419E318041945212421242166
:1024180045214521452145212521252145294529B4
:1024280065216521662166218729C8318731294AB6
:1024380056B5DFFFDFFFDEFFDEF7FEFFDBEE8F9B2B
:10244800D5D470AB475909622A72AD92CEA26FAB50
:10245800B3BC9ADE9DEFFFFFFFFFBFFFFFF7FBD680
:10246800A6298629C731A729A729A729A7298729FE
:1024780087298629662165216521652166214521EF
:1024880086296521252165216521C3102521662915
:10249800662945214629662966298731C729A7293A
:1024A800A729C729C729C729C729C731A729A729FC
:1024B80086298629662166296629462939C65ACE7B
:1024C80039CE19C619C63AC63AC619C69BD6D07BA4
:1024D800831025210419A210031944290419041989
:1024E800041904192421242124212421242124210C
:1024F8000421242104190419E318E31803192421D9
:10250800041924212421E318041925212421242134
:1025180045214521652945212521252124214529B4
:1025280065216521662166218729C8316629494ABE
:1025380056B59EF7DFFFDEFFFEFFFFFF59DEF0A373
:1025480094CC70AB4B7A88510A6A4C8A6D9A0FAB5F
:10255800D0A396BD1BDFDEF7DFFFBFFFFFF7DEEF7F
:1025680049426521C73186298729E8318729872982
:1025780087298629862966216521452165214521E6
:102588006621452125214521862904190419662932
:10259800662945294629462946298731A729A72991
:1025A800A729A729A729A729A729C729C729A72963
:1025B8008629662166216629462945217ACE5BC689
:1025C8003BCE3BCE39C638C619C6F9C53ACEB29409
:1025D80023212321E410A408C31043190319031964
:1025E80023192321241903190319242144214421DF
:1025F80024212421242104210319E318031904198F
:1026080004190419E318C310E318452125214529A5
:1026180025212421452925212521452945214521F3
:1026280045214521462946296629C73186296A4A0E
:1026380096ADBEF7FFF7FFFFFEFFFFFF3CE7519C9B
:1026480012B4F2C36C924869C9692A724B7AEE9245
:102658002F9B53BCF9E5FCF6DFFFDFFFDFFFFFFF31
:102668008E736529C731A729C831A729A7298621CB
:102678006621862966212521452186294521662945
:1026880065214521452165214521242182086529A7
:10269800452186296629452966296629A629A72963
:1026A800C729C729A729A729C729C831C731C729D1
:1026B800A729862966216621662186297BCE5BCEDD
:1026C8005BCE7BCE5ACE39CE39C6F8C5F8C596B59D
:1026D80085290319E418A308041903110319031918
:1026E80024212421242124212421242124212421BA
:1026F8002421242104190419E318E318E318E31822
:10270800E31803190319E31803194529252145215D
:1027180025212521652945292421242145214521D3
:1027280045214521452146298629C731A7316942D6
:10273800D6ADDEF7DEF7BEF7FFFFDEFF1BDFCF8B80
:1027480073BC74D40FA3A969C96109622B72CD8ABD
:1027580050A390AB15C518D69EFFFFFFBEF7FFFF2D
:10276800F49C6529E7318629A7298729A72986297D
:1027780086298629862945216521862966294521B4
:10278800452124192419242145212421C310041981
:10279800862965294529252125214529862186213E
:1027A80086298629862986218629A729A729A7294E
:1027B8008629662166216621662166217BCE7BCE2D
:1027C8007BD69BD67AD659CE39C6F7BDD7BD99D612
:1027D800E739E3180419A2082419E41003190319A6
:1027E80024192421242124192421242124212421C9
:1027F800242124210419E318C310C310E318E31893
:10280800E318E3180319E318041945212421452185
:1028180025214521452945292421242165214521B2
:1028280045214521452145218629C731C7316942BE
:1028380013953CDFFFFFFFFFBEFFDEFFDBDED3ACFF
:10284800F1AB74CCB1B3AD8A8751C851AC7AED8A7B
:10285800AD8A4FA311ACD8D5FBE6FFF7FFFFFFFF0A
:102868009ACE4521A7318629872986298621862956
:10287800862986298629862986298629452125218A
:10288800242124212419041904190419E318A31074
:1028980086294521452145290421462966216621A5
:1028A800862186218621862186218629A7298729AE
:1028B8008621662166216621662166215BCE5ACE75
:1028C8009AD69AD69AD65AD638CEF6BDB6BDBADEBC
:1028D800EB5AA31003198108E418E418E318E31865
:1028E80003190319031903190419041904192421D4
:1028F800242124210319E318C310C310E318031972
:10290800E318E318E318E3180319442124214521A7
:1029180045212421252124212521652945214521D9
:1029280045212521452145216629C731A7298A4AFC
:10293800D7B5FBDEBEF7DFFFBEFFFFFFDBDE119C76
:10294800F1AB94CC12C48C8A4B6A2A622A626B7AE5
:102958008D8AEE9A6FA352ACF7CDFFFFBEF7DFFF6B
:10296800FFFF694A6629A731A729C8316621862150
:10297800862166218629A729A62986294521252178
:102988002421452124210419041904190419A21029
:1029980045216529452166290521462966216621A3
:1029A80066218629862986298629862986298629CF
:1029B8008629862966296629662966295ACE59CE26
:1029C80099D6BAD69AD67AD637C6B4BDB4B558CE43
:1029D8007294C3180319A110E4180519E318E31831
:1029E800E318E318E318E318E318041903190419A2
:1029F8000419041904190419E318E318E31803194E
:102A08000319E318E318E31803194521442145295C
:102A1800242124212421242125214529252145213A
:102A280045212521452145216629A729C731293A6C
:102A38003CDF3CE71CE73CEFDFFF9EFFBBE6AF8BCC
:102A480052B433C433CC90ABAC822A6AE961096AC8
:102A5800E9714B820E9BB0A3F4B41CEFFFFFDEFFBD
:102A6800FFFF6D6BE418A731862986218729A729DE
:102A78008629662166218629862945216521252101
:102A88000419241924190419242165294521E31856
:102A9800C3106629252145210419252145214521F1
:102AA8004521662166216621862986298629862967
:102AB8008629862966216621662186293ACE39CE5D
:102AC80078D699D69AD67AD616C673B552AD95B534
:102AD800D7BD6531032181100419C518E4180419FC
:102AE8000419E318E318E31804190419041904195C
:102AF8000419041904190419E318E310C21003197E
:102B08000319E318E318E318031944216529452933
:102B18002421242145294529242104212421452132
:102B280025212421252145216621A629E831083AB5
:102B3800BBCE9EF7BBDEDBE6FCEEDFFFBBE693AC6D
:102B48006F9B32C4D6E4B2C32FAB0A7AC8610A6A53
:102B58008861EA794B822E9B11A4B7CD7DEFFFFFE8
:102B6800FFFF14A52421C731A7298629A729A7294A
:102B7800A729662166218629662945214521241928
:102B880004192419242124214521652945212421BA
:102B980082086629452146292521252145214521E7
:102BA8004521652165216621662186298629862990
:102BB800A7298629662166216621862919CE17C686
:102BC80037C657CE79D679D6F6C573B5D09CF2A458
:102BD800F7C50C63C2188110A3108410E3180419F8
:102BE8000419E418E318E418041904192421242109
:102BF800242124190419E318E310C310C210E318A0
:102C0800E318E318E318E318E318241944214421CE
:102C18002421242165294529242104212421452909
:102C280044212421252145216621A629E831493A54
:102C380039BEFFFF1CEF59D6D7C59EFFDBE66E8372
:102C480052AC12BCB5DCD2CB50BB70B36C82E96914
:102C5800875947592A7A8C82B09B6E8B91945DEF85
:102C6800FFFFDBDEC73145218629A7298729A72948
:102C7800A72966296621862966294521252104195F
:102C880024192421452145212421242125212421D9
:102C9800820865296629662945214521652165211E
:102CA8006521652165216521662186298629A62950
:102CB800A7298629662166216621862918CEF7C5A7
:102CC800D6BDF6C537CE57D616C693B5B09C12A555
:102CD800D6BDF3A4E320C2188210E418C310E31889
:102CE800E418E318E318E4180419E418E4180419BC
:102CF800242124190419E318E3180319E31003190C
:102D0800E318E318E318E318C210E3102419442168
:102D180044214421442124212521652924214529B0
:102D280044210421252145216621A7290832E731BC
:102D3800F8B5DFFFBFFFF8CD35B514B596BDD3A400
:102D4800519CF0A374CC74E4D2D32FB3CD926B7A98
:102D58002A6A2A6AA861096A4E8BCC720F84BEFF60
:102D6800FFFF9EF76A4A6521C731A729A729A72926
:102D7800A729862966216629452145216529252116
:102D880004190419242124210419041925212421B2
:102D9800A3102521662945210521252165216521C5
:102DA8006629662945214521662986298629862995
:102DB800862966296621452145216621D6BDD6BDCD
:102DC800F7C5D5C5F5C536CEF5C516CE33AD909C3D
:102DD80073B557CEEF8362104110E3200421A3108E
:102DE8000419E318A310C318E3180419C31004192D
:102DF80004190419E4180319E318C310E318C310DD
:102E0800C310E318E318E3180319E318E3102419AF
:102E180044212421041945214521E41804212421B1
:102E280045292521041904196521A7290832C73124
:102E380096ADFFFFDFFF39D62D73AF8BAF83AF831E
:102E4800929C52A4F1AB54D454E471C370BBED927C
:102E58002A722A6A6A6A6A6A295A3194DEFFBEF7B8
:102E6800DFFFDFFF107C2521A731862986298621EF
:102E7800662166216621662166296629652945211C
:102E88002421E318041925210419E4180419E31866
:102E9800041945216529452125212521452145215B
:102EA8006629662945212419252165218629652158
:102EB800452166296629662166216629F5C5F6C574
:102EC800F7C5D6C573B5B3BD15C6D5C5B5BD53AD24
:102ED80032ADD5C558CED3A4318CA218C318C318A7
:102EE800C318E318E318E318E418E318E4180419FE
:102EF8000419041904190419E418C310E318E31891
:102F0800E318E318E318E3180319E318E318C210E9
:102F18000319452165292421041945212421242147
:102F280024212521252125216621A729E731283AB1
:102F3800D394DFFFDFFFDFFFCB6A86410D7BB3ACA5
:102F4800B3A4CF8B52AC53CC54E4F3DB2FBB2FABE1
:102F58000E9B6B7A6A6A295A2C73FBE6DEFFBEF772
:102F6800DEFFFFFF75AD2521A629A7298729862918
:102F780066214621652165216621662904190419FF
:102F8800041924214521242104190419A210041923
:102F98004521652945212521252145214521452111
:102FA80045216521452125214521452166296521A0
:102FB800662966296629452145216629F5C516C66B
:102FC800F7C5D6C552AD10A5B4BDD6C5F6C594BDD6
:102FD80011A594B5F7C5BBE67DF79094A210A21091
:102FE80024210421E3180421E318041904210421ED
:102FF8000419E318E41804190419E318E418E31889
:10300800E318E318E310E318E318E3180319E310CF
:10301800C2100419652965212521252104210419D7
:10302800042124212521452166218629E831283AD1
:10303800307CDFFFDFFFBFFF39D62110E9696E93CF
:10304800319C72A4D09B32C433DC14EC14EC30C332
:103058000EABCC8AEC7A8F8BFCEEFFFFFEFFBEFF37
:10306800DEFFFFFFFBDEA6316629A6298729862910
:1030780066216621652165214521452145212521B6
:10308800E318C310E318E318E3180419E4184521FA
:10309800862986296629662145214521452124213D
:1030A8002421452145214521452125214521452129
:1030B800452166296521452125214521B4BD16C62E
:1030C800F7C5F6C5B4BDB09CD19CD6C5D6C516C645
:1030D80073B512A595BD59D6DAE67BF791944429C4
:1030E80061080321E31804210421C31804190419F1
:1030F800E418E318E31804190419E318E418C310D2
:10310800E318E318C310E3180319E3180319E318C5
:10311800C310C310E41845214521E4180419E41824
:103128000419041925212521452186290832283A20
:10313800107C9EEFBEF7DFFFFFFF6D7B6B82D1AB8C
:1031480031ACAF9BF1AB90B3B1CB13E4F3EBD2DB73
:1031580091C30EA32D8B7AE6FFFF7DF7DEFFDEFF1E
:10316800DEFFBEF7DEF78A4A252186296621662119
:1031780066216629662166214521252125212521EB
:103188000419E318E318E318E318E318452165293F
:103198008629662966296629452125214521242174
:1031A80024212421452125212421242125212521CB
:1031B800452166296529452145214521B4BDF6C526
:1031C80017CE37CEF6C512A5709433ADF7C5B5BD89
:1031D80036CE32AD54B5F6C598D6F9E61BE7F3A45A
:1031E80085316108E318E31803210421E318E31883
:1031F800E418E318E318E318E418E418E418E418EA
:10320800E418E318E318E31803190319E318A210E4
:10321800C310A2106208E410452104190419041906
:10322800041904190521252145218629083AE73181
:10323800AE6B9EEFDEF7FFFFBEFF7DF78FA3F5CCE9
:103248004F9BB0ABD1B332CC94DC74E413E4F3DB22
:1032580090BB90AB9BFEDFFF7DF7FFFFDEFFDEFF3D
:10326800DEFF9EF7FFFFEF7B0419862966216621A2
:1032780066216629662166214521252124212521EB
:10328800242104190419E318E4184521452145218E
:10329800652166294521452145216621452145218C
:1032A80045214521452145214521452145214521E6
:1032B80045216629662966296529652916C6D5BD69
:1032C80057CE37CEF6C5B5BDD2A4709433ADD6C5AA
:1032D80037CE53B512A594BD77D6D9E678CE99D610
:1032E80058CECA5A61100321C218A210C318E31895
:1032F800E418E418E318E418E4180419E418E418C6
:10330800E418E318C310C310E318E318E318A21075
:10331800A210820882086621A73105192419041908
:10332800041904190419041945218629083AA729FA
:103338002C5BBEF7FFFF9DF7FFFFFFFF1DFF93B458
:1033480073BC33C432C473CCB4D4B4D494CC8FAB70
:1033580073C4FCFEDFFFBEFFFFFFBEF7DEFFBEFF4C
:10336800DEFFDEFFFFFF75AD252186298629862928
:1033780066216621452145214521452145292521EB
:1033880024212421E3186108A210652986296521D2
:1033980045216629662945212521452145214521C3
:1033A80045214521452124212521452165294521FE
:1033B80045216529662966294521452137CEF5C568
:1033C80016CE16C6F6C5F7C575B57094D19C75B5F9
:1033D800D7C517CEF1A431AD15CE57D699DE58D63C
:1033E80078CEFBE6F3A444296108E318C318C31890
:1033F800C318E318E318E418E418E418E418C41828
:10340800E418E418C310C310E318E3180319E31011
:10341800C310C3104521093AE83946212419241953
:103428000419E418E418042145218629C731E8392C
:103438000C5B7DEFDEF7FFFFDEFFDEFFFFFF18D638
:103448004E932EA3CD9A097A6A7AAB720C7BB2ACF2
:103458007DFFDFFFDEFFDEF7FFFFFFFFDEFFDEFFA2
:10346800DEFFDEFFDFFFDBDEE8396629A7298629D4
:10347800662145214521452145214521252145290B
:10348800652965292421820861088208452145218A
:1034980045216629662966294521251945214421A2
:1034A8002421242124212421252145214521452188
:1034B80045214521452145212521252117CE36CEF7
:1034C800D4BDD5C517CEF8C5B6BD33AD2F8C13AD59
:1034D800D7C5F6C5B4BDF0A473B578D699D679D654
:1034E80079D699D65CEF58CECA5A8110C318A3185A
:1034F800C318C318E318C418C318C318E418E41889
:1035080004190419E318E318041904190319E31832
:10351800E3104521083AE839A729E8394521251952
:103528000419E4180419252146298629C731C73109
:10353800EB527DEFDEF7DEF7FFFFFFFFFFEFFFFF48
:1035480039EED1B3B4DC15D592ACF3AC58CEFFFF4D
:10355800DEFFFFFFFEF7FFF7FFF7FFF7BDFFFFFFF7
:10356800DEFFBEF7BEF7DFFFAB524521862966298D
:103578006621652165216521452145212521662989
:103588004529242124210419A310410062080419A3
:103598006529662945212521252125214521242123
:1035A8002421242144212521452145212421452167
:1035B80045214521452145212521252136C617C606
:1035C80018CE93B592B5F5C5B7C597BD919C6E94C5
:1035D80094BDB6BDD8C595BD53AD36CE58DE78DEA0
:1035E80057D697DED8E618E719EF31AD8439601061
:1035F800A218C420C4180419A308C410E418C318D6
:1036080024210319E318E318E318C3180419E41074
:1036180087210932C721C721282AE829E731241937
:1036280065210519E510051966218729E731C73194
:10363800AA4ABEEFBEF7DEFFFFFFDFFFBEFFDEFFD9
:10364800FFFF1BD71395DFFFDFFFDFFFFFFFDEF76D
:10365800FEF7FFFFDEFFDEFFFFFFDEFFBDFFDEFF41
:10366800BDFFDEFF9DF7DFFFD394E31886296629A7
:10367800662966216621652186294521652945290E
:1036880045294529A210E31804190419820861087C
:10369800A2104521652924210419242166194519F8
:1036A80024192319432144292429242905290529D2
:1036B80026214621462145196519851916C6F6C5DC
:1036C800D6BD94B532AD94B5F7C5D7C534B57094A9
:1036D800D19CB6BDD7C517CED5BD15C678DE58D690
:1036E80057D697D6D7DEF7E6D8E63AEFB8DE8D7B21
:1036F800E3206110C318C318C3100419E418E418B0
:10370800E318E3180319E318C3180421E418E418AC
:103718004621C831E831E831E8310832C731A629F5
:1037280025192519E4182519462186290832E73173
:10373800CA4ADEF7DEF7FEFFFFFFFFFF9EFFFFFF2F
:10374800FEFFFEFFDEFF3BF779EE79EE7CFFFEFF22
:10375800FEFFFEFFDEFFFFFFFFFFFFFFDEFFDEFFD6
:10376800DEFFDEFFBEF7DFFF18C66529862986293A
:10377800662966216621251965214521452945299E
:103788004421E3188210A210E318C3102421C210A8
:103798008208C31024214521652945216621452138
:1037A80044192421242124212421242125212521CF
:1037B800252125212519241924194419F6C5F6C5EA
:1037C800D5BDB5BDF2A4D1A4D4BDF6C5B6BDB3A4CC
:1037D800509453B5F6C557CE37CE36C637D678DEB1
:1037E80057D697D6B7DED8E676D6F8E6F9E67BF769
:1037F80016CE69526110C318E3180419C310E418EF
:103808000419E31824210321A210E318A310C318F4
:10381800C4204631C839C839A731E839C731083A10
:10382800452105190419051966218629083A083A17
:10383800EA52FFF7DEF7FEFFFFFFFFFFFFFFFFFF84
:10384800BDF7FEFF7BF7B4CD94D5D4DD77EE9CFFB2
:10385800FEFFDEFFFEFFFFFFDFFFFFFFDEFFDEFFF5
:10386800DEFFBEF7BDF7DEF77DEF49422521862949
:10387800662966296621452145214521652945296D
:10388800242161088208A2100319C310E318C31089
:10389800E318E318C31024214521041945212421E4
:1038A8002421242124214421442124214521452166
:1038B800452145214521242124214521B5BDD5BDDA
:1038C800F5C5F6C514AD919C51ADD4C5D6C536B570
:1038D800929C8F94D4BD36CE37CE78D678DE98DEDB
:1038E80016CE36CE56D6D8DEF8E677D6B7DE3AEF1D
:1038F8003AEF5BEF12A5A531811081080419E41095
:10390800E418C318A210E318E310C210C310C318B8
:10391800A318E4286631A739A731C731C731E83180
:10392800A62904190419E41866296629283A073AC9
:103938002B5BFFFFBEF7DEFFFFFFFFFFFFFFFFFF71
:10394800FEFF5AF792CDEFCC71E571E592DDF8F6FE
:10395800FDFFFEFFFEFFFFFFFFFFDFFFDEFFDEFFD5
:10396800DEFFDEF7BEF79DF7FFFFAE730419862969
:10397800662166298629662145216621652945290A
:10398800E31841088208C3180421E318E31803194F
:103998002421C3108208C310452165292429242124
:1039A800242124212521452145214521442144194B
:1039B80044214421242104210421052954B593B527
:1039C800F4C5D6C576BDF2A4CF9C72B5D6C597BD51
:1039D80015AD4F8C51AD36CE57CE98D6B8E698DE99
:1039E80016CED5C536CE56D6D8E6D8E639F7D7E6B8
:1039F800F8E65AEF5BEF78CECE7B44216200E418FC
:103A080045290421E31845212419E3100311E3187B
:103A1800C318C320E4208631E731E731C731A6292E
:103A2800E8394521E418041966296529083AE73177
:103A38006D6BFFFFBEF7DFFFFFFFFFFFDFF7FFFF45
:103A4800BDFFB3D550D52EDD4EE5EEDCEED414E641
:103A58007AFFFDFFFEFFFFFFFFFFDFFFFEFFDEFF38
:103A6800FEFFDEFFBEF79EEFFFFF76AD0419662965
:103A7800862986296629452145216621652924212B
:103A8800811061086108C318E3180421E318E318DA
:103A9800C310A2108208E31845214521432924298F
:103AA8002429252125212521452145194421432162
:103AB8004321432124210421E428052995BD94B5F7
:103AC800D4BDB4BDD6C575B5B09CCF9C73B596BDF5
:103AD80096BDF2A48F94D4BD57CE98D6B8DE97DEA3
:103AE80057D674B516CE36CE15CEB7E6D7E659F703
:103AF80038EF39EFB8DE77CE99D675AD2C5B04195F
:103B080062100421E420A310C20803110311031159
:103B18000311C310C3104421C729E729A7298629FF
:103B2800E731A731C310252125216529E839C73197
:103B3800EF73FFFFBEF7FFFFFFFFFFFFFFFFFFFF72
:103B480057DE31CD2FDD4EE50DEDECE4ACD450DD84
:103B5800B7F6DCFFFEFFFFFFFFFFDFFFFFFFFEFF03
:103B6800DEFFDEFFBEF79EEFBEF71CDFC731252163
:103B7800A729862945212521452186294421E3189D
:103B8800410881086108C310C3180419C310C31081
:103B9800A2108208C3100419252124214329432196
:103BA80024212521252146214521452164216421FF
:103BB80064216429442924212529262938CED6C5FB
:103BC800D4BDD4BDB4BD95BD13AD909CD0A453B5A0
:103BD800B6BD75B5B19C72B535CE78D6B7E6B8E640
:103BE80057D653B594BD37CE16CEF8E6F8E618EF9B
:103BF80038F7B7DE56CE78D638CED7BD59C6D7B542
:103C0800CB5A4108C3184529A3100419E208031127
:103C18000309C208E310E3104519A629C729A729F3
:103C2800A731C7312521041924216629083AC7314B
:103C38007284FFF7DFF7FFFFFFFFFFFFFFFF3BEF98
:103C480094CDD3ED4FE54EED0CEDECE4ACDCEEDCC1
:103C5800F3E539F7FDFFFFFFFFFFDFFFFEFFFEFF84
:103C6800DEFFDEF7BEF7BEF79EEFDFF72D63041920
:103C78008629662966292521462986290421811055
:103C8800410881088108A210C318E31804212421DF
:103C9800C2104100A210242165298629432143210D
:103CA8002421252145214629462925292421242165
:103CB80044214421442124214521462199DE38CE3E
:103CC800F6C5F4C593BDB5BDD7C5D2A46E9430ADC5
:103CD80053B555B575B532ADF4C536CEB7E6D8E6A9
:103CE80077D6F6C533AD94BD37D697DEB7E638F745
:103CF80018EFB7DE57D617CEF8C5D8BDD7B5DBD67F
:103D0800FCDE1084A31862100529A310C208031151
:103D1800E308C3080411A310A3186631C729C731E3
:103D2800A729A731A729E41825216621293AC731EF
:103D3800F394FFF7DFF7FFFFDFFFDEFFDDFF57DE5E
:103D480072D551DD4FE52DE50CE5ECE4ACDCCDDCBE
:103D580070DD96EEDCFFFEFFDEFFFFFFDEFFFFFFFC
:103D6800FFFFDEFFDFFFDEF79EEFFFF7B39445218D
:103D7800652145218629462925212521E218400863
:103D88006108610881088108E318C310C310242161
:103D9800A2106108E318452125212421642164210A
:103DA8004421442145214529252105212521252175
:103DB80045214521652165218621A621DADE59D6CE
:103DC80018CED4BD92B5B4BDD7C575BDAF9C6D94A2
:103DD80011AD75B5D6C5B4BDB4BD35CE55D6F8EE62
:103DE80077D616CEB5BD33B5F6C536D6D8E6F8EED5
:103DF80097DE77DE37D6D7C5F9C519C617BEBACE4E
:103E0800DBD61CE75294A3204210C320A3188108D4
:103E1800E3100311C308A310A420A4208621A72916
:103E2800A729A729C7316621E4104621293AA729DD
:103E380056A5FFFFDFF7FFFFBEF7FFFFF8EEF4DD43
:103E480092DD51E530E56FE54EE50DE5ACDCEDE4DE
:103E580070E534E6F8EEFEFFDEFFFFFFDEF7FFFF5A
:103E6800FEFFDEF7DFFFBEF79EEFDFF779CE4521D5
:103E78006629662966294521652945218108610841
:103E88006108610861088210C210E318E318031979
:103E980061086108041945214521452165216421EE
:103EA8004421442124212421252125214629252175
:103EB80026216621662145218621E729FADEBBDE17
:103EC8009AD616C6B4BDD4BDF6C5B6C553B58F943B
:103ED8006F9474B595BD17CE36CEF4C555D6B7E6F2
:103EE800D8E677D6F6C595BDB5BD16CE98DEB8E648
:103EF80077DE57D617CEF8C53ACE1AC699CE99D6D8
:103F08009AD67AD6BBDEB3A425316218C320E3184B
:103F1800E310A2088208C418A41864180519872990
:103F2800A7296621E831A729E4106621E831C829C4
:103F3800B7ADFFF7FFFFBEFFFEFF7CF754EEB2DD23
:103F480091E551E550DD70DD4FDD0EDDACD4CDDC03
:103F580070EDD2E514DE19EFFEFFBEFFFFFFBEF7DE
:103F6800DEFFFFFFDEFFDEF7BEF77DEF7DEF4942A4
:103F780045214521452145214529E4186108610865
:103F88006108610861088110A210C210E318E318E3
:103F98006108820804214521452145214521242124
:103FA80024212421242124192419251946212619DC
:103FB800462187298729A629273ACA52FADEFBE62D
:103FC800DBDE59CED6BDB3BDD4BDF6C596BDF2A4D1
:103FD8004E9431AD94BD18CE78D6F4C515CE56D6CC
:103FE800F9E698DE57D617CE95BDF6CD37D658D612
:103FF80098DE18CED7C53ACE5CCE3BCE78CEDADE88
:1040080099D69AD65AD6DCE639D629522008A2186B
:10401800E218A21003110419A310A410C410462119
:10402800A7298629C729C73125194619C829C829A2
:1040380039BEDFF7DEFFDEFFDDFF97E6D1E5B1E54C
:10404800B2ED72ED72E571DD2FD50ED5CDD4ADD4BC
:104058002FE591E592D5F4D59CFFDEFFBEFFFFFF6B
:10406800FFFFDEFFFEFFDFFF9EF77DEFFFFFCF7351
:1040780004194521242165294529A3104008600811
:104088006108610861088110A210C210E318C31802
:104098006108A21025214529252125212529252129
:1040A80024214421442144196419652105116621FC
:1040B800A7298731E841AA5AEA62C9621BE7DBDE11
:1040C800BBDEBCDE58CE93B592B5F5C597BD76BDBF
:1040D800B09C8E9494BDF7CD58D636CE15CE15CE5D
:1040E800B8DE98DE98DE78D6B5C5D6C5F7CD17CE3A
:1040F80099DE38CED8C55BCE7CD65CCE79D6BADE12
:1041080059D69AD6BBDEBBDE3DEFFBE6AE8303296C
:104118004018E228A1108108E3080409A310C3107D
:104128008629C7316621A729A7290511E829A729C2
:104138007ACEDFFFBDFFFDFFB7EEF4D5B0E5D1EDD8
:10414800B2ED92ED92E572DD30D52FD50ED5EED4D5
:10415800EED450E5B2E531CD36E6DDFFBEFFFFFF18
:10416800DEFFBEFFFFFFDEFF7DEFBEF7DFFF75ADB1
:1041780003194521242145290421821040084008BB
:104188006008610881088110A210C3180319C210C1
:104198006108C31045294521252125210529052127
:1041A8000421242123194319441965194519662145
:1041B800E8398A5ACA6AA96A886AA7721CE7FBDEC4
:1041C800DCDEFDE6BBD6F5BD92B5B4BDD7C5B7C537
:1041D80033AD4E9432ADF7C538CE57D657D636CE16
:1041E80057D678D698DE98D617CED6C5F6C5D7C591
:1041F80079D65ACE19C67BD69CD6BCD699DE99DE1E
:10420800DBE6BBDEDBDE1CE7FBDE9DFF99EE8D9B6C
:10421800E35000302028C228E210A100A310821029
:104228000421A63166218621E8292519C829A7294C
:104238009ACEDFFFBDFF39FFB3D5B2D590E5B0E523
:1042480091E571E551E551DD30D50FD5EECC0ED5B0
:10425800CED40FE571E510D510C5B7F6FEFFBEFF49
:10426800BDFFDEFFDEFFBEF7BEF77DEFBEF71BDF4B
:104278006529442145212421C310610840084008CC
:104288006008610861088110A210E3180319A210E0
:104298006108E3184529252145214529252925298E
:1042A800252124212419431964198521C631474A37
:1042B800CA620A73C97266724572667A1DE71CDFA4
:1042C8001CE71CE7DBDE78CEF5BD73B5D6C5B6BDF9
:1042D800B5BDF2A4709495BD37CE58D658D658D6E9
:1042E80037CE77D678D677D698D617CED6C5B7C56F
:1042F80019CE39CE5ACEBCD6DCD6DCD699D699D6CC
:1043080059D6DBE63DEF1CDF3CE7DAEED6E54DBBE0
:10431800A8A92699627000402020C1106210A21836
:104328008210242186298629A729A7298729C83107
:10433800BBD6DEFF7BFFF4DD91DDB1E590E591E5CD
:1043480050DD30DDEFDCCFD4CED4CECCCDC40ECD15
:104358000FDDEFDCAED410DDCFC410C53CF7DEFFB7
:10436800FFFFDEFFBEFFDEFFBEFF7DEF7DEFDEF766
:10437800894AE3184529042181106108400840084A
:1043880040086008610861088110C218E318A2108B
:104398006108031945292521452945294529452924
:1043A8004521452145214521A529E639A85A2A73E1
:1043B8004A7BA77244728582858A44821EDF1DDF8C
:1043C8003CE71BDFFADEDBDE59CE94B593B5B4BD0E
:1043D800D7C5B6BDB2A453B516CE58D679D679DEB0
:1043E80058D657CE36C657CE98D658CED7C5D7C585
:1043F80097BDF8BD7ACEDCD61DDFFCD6B9CE38CE57
:104408007AD6BBE6DBDE3CE75CEFBAF6D3E44ACA11
:1044180064B844C0C6C8E59861504028821881181D
:104428008110A2106529A629862908328729093A08
:10443800DBDEBDFF77EE51CD91E590E5B1E571DDAD
:104448004FD52FDDAED44CCC8DCC6CC48DBCADC457
:104458000FD5AEDC2DD4AEDCEFD46DBC74B55CF7F3
:10446800FEFFBDFFBEFFDEFF9EF79DF75DEFDFFF9E
:104478005084C2184529C3186108810840084008BB
:1044880040086008600840088108A210C218820825
:10449800810804214529252145294521442144191C
:1044A8002419252145218631084A685A4A7B087B08
:1044B800C67AA57A64826382848A84923FE7FDDEA5
:1044C8003CE75BE71ADF1CE7BCDE17C651ADB3BD9E
:1044D800B6C5B8C5B6C573B515CE38D69ADEBADE38
:1044E800B9DE57CED5BDF5C557CE37CEF7C5D7C53A
:1044F80056AD97B55ACEDCD63DDFDBCEB9CE58C621
:10450800DBDEFCEEDCE63CE71CEF79F631E447C97C
:1045180024D805E804D8C5C066994469E328401042
:10452800821881100319C6318629E831C831094239
:10453800FBE69CFF93CD71D590E56FE571D550D51D
:104548002FD52FDD8DD40BCC4CCC4BC46CBC6CB4AC
:104558008DC4AED44DD42CCCEED4ADBC719CD6C594
:104568005CF7DEFFBDFF9DF79DF77DF77DEFDEFF72
:10457800D6B5E3184529A110610881102000200054
:1045880040086008600840088108A210A21061086D
:1045980082080421452925214529252184196419E2
:1045A80065216621A731094ACB6A4C7BE97AE77A0B
:1045B800C582A482838A838A839283923CE73CE7FC
:1045C8003CE71DE71DE71CE7FCDEDBDEB6BD34ADCE
:1045D800D6C5F6C516CE16CE94BD77DEB9E6BAE6D0
:1045E800B9DE99DED5C573B5F5C517CE18C6D8BDE1
:1045F80075B595B578CE1BE7FDE6DEDE9AD659CEC1
:10460800DADE1BEF3CE79EE71CE7D7F5CCF262E069
:1046180041E0A1D0A2C883C863D062D0A3C063A080
:1046280023606228E2088309E4190622E829E939A7
:104638001DFF57FE0FD52FDD51ED11ED30D530D5CB
:104648000FD5CECC6DC42CBC0CB40CB40CB4ECABF4
:104658000DB44DBC4DBC0CB42CBC6DC44CC4EBB3F8
:10466800D4DD9CFF9DF79EEFBEEF9EEF7DEF3CEF04
:104678005CEFE641A2188108820861006100200011
:1046880020086018401020108110A10881086108D6
:10469800A11022212321642945214621862186292A
:1046A8008529A539675A297B0883857AA58AC58A09
:1046B800C58AA48A848AA48AC58AE58A3CE73CE735
:1046C8003CE73DE73DE71CE7FCE6DBDE59CE55B5A8
:1046D80095BD16CE16CE36CE36CE36D6D9E6FAE605
:1046E800B9E678D637CEB4BD73B5D6C518C6F8C501
:1046F800B6BDD6BD79CEFCDEFDE6FEDEBBD69AD6CB
:10470800FBE63CEF3DE77DE7DBE635ED49E242D8E5
:1047180041E081D0A2C883C863D063D083C0A4B865
:10472800E6980669243923296329A529C7216B42FC
:10473800DBEE53D5EFD42FD530DDAFD4EFCCEFCCB3
:10474800CECC6DC40BB4CBB3CBABCBABECB3ECAB37
:104758000CAC2DB40DB40CB4ECB3EBB3CBB32CBC94
:10476800CC9BB8EE9CFF7DEFBEEF3CDF7DEF5CEFAE
:104778009DF72C6B611081086108610061004000A1
:10478800000020084010200860108108E218610825
:1047980061082319442145212521662965214421E1
:1047A800C639E9624A7B87724572A582A58AA58ABD
:1047B800A48AA48AA48AC58AE58AE68A3CE73CE7F3
:1047C8003CE73CE73DE73DE71CE71CE7DBDEF7C5D8
:1047D80075B5D6C537CE77D697DE56D6B8DE99DE0C
:1047E800B9DE58D658D6F6C533AD73B5D6C517C693
:1047F800F7C518C67AD6FCDEFCE6FCE6BBD6DBDEDF
:104808001BEF5DF75DE75DE7BAEE72E466D141D86C
:1048180061E082D082C883D062D062D082C884C866
:10482800A6B8E7A02681046903594439C629694214
:10483800F7CDB0C4EFCC0ECDEEC4CFC4AEC4AECC71
:104848008EC44CBCEBB3CAABCBB3ECB3ECAB0CAC87
:104858000CACECABECAB0CB4CBAB8AA3CAAB0CB4D2
:10486800CC9B2EA43BF77CEF9DEF7DEF5DE75CEFE3
:10487800BEFFF3A440086108410061002000410028
:1048880041002000811040086110811060088108F3
:10489800A2000411041945210421E320643148527F
:1048A8000A6B0973A772456A4472647AA582A48A5E
:1048B800848A8482A48AC58AE68AE68A3CE73CE739
:1048C8003CE73CE73DE73DE73CE71CE7FBE6BADEB3
:1048D800D6BD74B537CE98DE78DEB8DE98DE37CE32
:1048E80078D678DE38D638CEB5BD32AD93B5D5C5D5
:1048F80018CE5ACE9CD6DDDE1CE71BE7BAD6DBE61F
:10490800FCEE5DF75DEF3DEF39F66EDBE4C861D88C
:1049180082E062D062C883D062D062D0A1C842C8A7
:1049280004C866C0A5B0C4A0C38824618531E63137
:10493800B1ACD0CC8DC4ADBC8DB4AEBC4DBC6DBCDF
:104948004DBC0CBCCBB3CBABCBABCBABCBABECABA1
:104958000CACECABECAB0CACCBAB8A9B8AA38A9BC4
:104968000DA4097BB1AC3BF73BE75CEF3CE73CE7C8
:104978005DEF79CEE318410861082000000041008E
:104988004100210041000000611060106108A20888
:10499800C3082511051104218539475AA86AE87208
:1049A800E8728672667265724472447A858A848A6D
:1049B80084828482A58AC58AE68AE68A3CE73CE73F
:1049C8003CE73CE73DE73DE73DE73DE7FCE61BE725
:1049D80079D695BDD6C578D677D6D9E699DE57D695
:1049E800F6CD37CE58D679D658D694BD31AD73B5F5
:1049F800F7C55AD69DDEDDDE1CE71BE7DADEFBE6EF
:104A0800FCEE5EEF5DEFDCEE56ED4AD2A3C882D82D
:104A180062D862D063D083D062D061D0C0C062D087
:104A280023D824D024C843C083B045894341885241
:104A380070AC8FCC4CCC8CBC6DB44DB42CB44DBC8C
:104A48004DBC2CBC0CB4EBB3CBABCBABABA3CBA367
:104A5800CCA3CCA3ECA3ECABCBA3ABA36AA34A93A4
:104A68008B9BAB930A7BD5CD7CFFFBE61CE71CE751
:104A78001CE75DEF494A0000811020004108410011
:104A88004100210000000000811040102008041996
:104A9800041125198629895AE96AA872E77AA67A3B
:104AA8008572857A857A44722372437A84828482F5
:104AB80064828482A582E68AE68AE68A3CE73CE745
:104AC8003CE73CE73CE73DE73DE73DEF3CEF1CE7D3
:104AD8001BE738CE95BD16CE78D6B9DEBAE698DE95
:104AE800B4BDB4BD37D678DE79D616CE52B532AD60
:104AF800B5BD59D6BCDEFDE61CE71BE7FBDE1CEFA7
:104B08001DEF7EEF7EEF9AF672EC87D182C881D8CE
:104B180062D063D843D083D882D861D8C0C061D06E
:104B280043D824D822C801C842C024A163596B7B4A
:104B38008FB42DCC8EDC6CC46DBC4EBC6DBC8EC4E9
:104B48008EC46DC44DBC2CBC0CB4ECABABA3ABA3F6
:104B5800AB9BAC9BCCA3CBA3ABA3ABA34A932993AE
:104B68002A934A8B2A834B8378DE1BEF1BE7FCE6EC
:104B7800FCDE9EF7F07B000061102008200020007A
:104B88000000410840084008601020088110643186
:104B9800A6398852EA6AE972A87266724472A582D6
:104BA800E68AA582647A237A237A447A44826482E4
:104BB80064828482A582E68A078B078B3CE73CE700
:104BC8003CE73CE73CE73DE75DEF5DEF5DEF3CE749
:104BD8003CEFDADEF7C5D6C558D698DEBAE6B9E6B0
:104BE80015CE93BDF5C537D658D658D6B5C553B5E5
:104BF80074B538CEDBDEFCE61DE71CE7FADE1CEFF9
:104C08001DEF5EEF5EEF19F68FEB05D162D081D014
:104C180062D083D823D063D862D061D8A0C060C8DE
:104C280022D063C862C021C821C8E3A82682EC9BB1
:104C38002DB4ECCB4DD40BBC4DBC8FCC8EC46EC404
:104C48006EC44DBC4DBC2DBC0CB4ECABECABACA3F2
:104C58008B9B6B938B938B938A9B6A934A934A9310
:104C6800298B298B4A8BA8720E9CFAEEFBEEFCDE90
:104C7800FCDE3DE776AD41084008200840006108A9
:104C88000000000820082008000040088439096B4B
:104C9800297B0883A67A657A867A867A84828482D2
:104CA8008482A58AA58A437A0372237A237A447A6E
:104CB800647A8582A582E68A079327933CE73CE7D6
:104CC8003CE73CE73CE75DEF5DEF7DEF5DEF7DF7AF
:104CD8001CE71BE799D6D6BD37CE99DEBAE699DE32
:104CE800B8DEF4CD92BD15CE57D658DE37D674B59A
:104CF80053B537CEDADE1CE71DE71DE7FADEFCEE1A
:104D08001DEF3EE7FCEE76F5ABE283D061D881D0AB
:104D180062D084E023D042D061D060D080C841D036
:104D280042D082C082B841C041C8C2B009B38EB473
:104D38004DBC6DD4EBC34CBCCFCC8FD48FC46EC4E8
:104D48004DBC2DBC2DBC2DBC0DB40CACEDABCCA317
:104D58006B932A8B2A8B4A8B498B298B2A93C9827E
:104D6800E88A098BC882C882877233BDFBEEBBDE36
:104D7800DCDEDCD65ACEE3182008000024196529A9
:104D88004008200820080008000003212A736A8BC5
:104D9800A57AA58AA48A84828582857A6482A48A6F
:104DA800848A64826482447A237A03722372237A1F
:104DB800647A8582A582E68A079327933CE71BE7F6
:104DC8003CE73CE73CE73CE75DEF5DEF5DEF5DEF1F
:104DD8005DEF3CEFFBE659D617C658CEBADEDAE6E9
:104DE800B9E677DEB3C573BD36D637D638D6F7CD34
:104DF800B5C537CED9DE1BE73DEFFEE61BDFFBE688
:104E08003EF73DEF9AEED4F4A7D162D861D882D0AC
:104E180083D063D043D862D061D060D061D021D034
:104E280042D082B8C2B840B861C0E2B04ABB4DB403
:104E38008EC44DCC4CC4EECC8DBCECBBECB3CCAB2F
:104E4800CBABCBABCBABABAB8AA36B9BABA38B9BFB
:104E5800AB9B2A8B09834A8B298B4A8B0A8B0A8B3B
:104E6800C882A782C88AA7828772A97238DEDBE661
:104E78009BD6BBD6DBD6E7390000200885214842FF
:104E8800A21020004008A210E3180A6BAB83078326
:104E9800C48AA392A392838A6482657A6482848294
:104EA800848284828482447A447A247A2472447A7A
:104EB80085828582A58AE692279B479B3CE71BE76C
:104EC8003CE73CE73CE73CE75DEF5DEF7DEF5DEFFE
:104ED8005DEF5DEF5CEFDBDE58CE17C6B9DEB9DEFD
:104EE800B9DE98DE36D693BD72BD36D617D6F7CD65
:104EF800D6C537CED9DE1BE73DEFFEE6FAE6FCE67F
:104F08003DEF1DEF39EE10EC25D121D861D882D0C4
:104F180083D063D043D862D061D061D022D802D880
:104F280042D862C082B861B840B043B1ECCB6CBC27
:104F3800ADC46DC46CBC4BB4EBABABB38BA34A9B99
:104F48004A9B4AA3299B299B299B099329934A9306
:104F58008B934A8BE982E982C87A0983EA82EA8AD2
:104F6800C98AA782A78287826672476AEE93BAE6E1
:104F78009AD69BD61CDF4D6B00000000A6214C532F
:104F88000411C308A621A629AA52ED834983068BDA
:104F9800C492C392A392838A6482647A648284826C
:104FA800858285828582647A647A447A447A657ACD
:104FB8008582A582C58A0693279B67A31BE71CE702
:104FC8003CE73CE73CE73CE73DE75DEF7DEF5DEF25
:104FD8005DEF5DEF7DEF5CEFDADE38CE97DEB9DEB0
:104FE800FBE69ADE58D615CE72BD93BDF6CDF7CD49
:104FF800F7CD58D6DAE61BE73DEFFDE6FBE61CE702
:105008001DEFDCEE97F5ECDAC3D021D861D882D059
:1050180083D063D063D062D062D061D022D822D846
:1050280023D842C841B881B880A826C20CCC2BB47A
:105038004CB40BB42BBCCBABCBB3ECBB0DB4CCABEF
:10504800CCABABAB6AA36AA36AA3299BC88AC88204
:10505800098B0A8B0A83E982A87AA87AC97AC98255
:10506800C8828782667A867A877A676A275AD7CD0E
:105078009ADE59CEBBDE728C00000000482ACF634E
:10508800292A2922292A283AAD7B4A7B0783058BBE
:10509800E592E492C48AA48A8482648264828482C7
:1050A800A582A582A5828582857A857AA582A58230
:1050B800A582A582C68A0693479B67A31CE71CE7BF
:1050C8001CE73CE73CE73CE73DE75DEF5DEF5DEF64
:1050D8007DEF7DEF5DEF5DEF3CE7BAD6B7DEB8DE7A
:1050E800FBE69ADE38D677DE14CE51B5B4C5D6CDF8
:1050F800F7CD79DEFBE61CE73CEF1CE7DBE61CE7B7
:10510800FCE65AEED3ECC8C982D061D861D862D027
:1051180083D063D062D062D062D062D042D043D014
:1051280022D042D042C061B002A929CBAABBCAABE7
:105138000BACEBB32CBC4DC46ECC8FD4AFCC4EBCF7
:105148004EC44DC4CCB3ABB3ABAB299BE88AA882A1
:10515800A87AC9820A8B0983C882A87AA97AA87A08
:10516800A8828782467A867AA782A872065A0F94FE
:105178009ADE59CE59CEF39C810800008A32CF5B63
:10518800EC3ACC3AAB3AEB52AC7B077B068B2693D6
:105198000693E58AC582A582848264828482A58278
:1051A800C582C68AC682C682C682C682C68AC68AA0
:1051B800A58AA58AE58A0693479B67A31CE71CE78F
:1051C8001CE73CE73CE73CE73DE75DE75DEF5DEF6B
:1051D8009DEF7DEF5DEF5CEF5CEF3CE7F9E698DE75
:1051E80079D6BAE699DE77DE56D6B3C552B594BD00
:1051F800D7C57AD6DBE61CE71CE7FCE6BBEEFCE687
:10520800DBE6F8EDD0EB25C961D061D862D863D868
:1052180063D863D062D062D062D062D862C862D0EC
:1052280042D042D062C840A0E5B1CBCBAAB3CAB342
:105238004CBCAFCCD0D411E5D0DCF1E411D5AFCC67
:10524800D0D4D0D46EC42DC40DBC8BA30993C98A05
:10525800A882A882C982A87AA87AC982887A887A14
:10526800A882A882667A4672667267720662686267
:1052780018D69ADE59CE75ADC3100000EC3A526CC0
:105288006E4B4D538D63AC7B298348932693269BA5
:105298002693E68AE682C682858264828582A58212
:1052A800C68AE68AE68AE68AE68AE68AE68AE68A96
:1052B800C68AC58AE6922693479B67A31CE71CE724
:1052C8001CE73CE73CE73CE73DE75DE75DEF5DEF6A
:1052D8007DEF9DEF7DEF5DEF5CEF3CE71AE7FAE6C7
:1052E80057D698DEDAE678DE57D636D652B553B5B5
:1052F80074BD38CEDBDEFCE61CE71CE79BEEDCE683
:10530800BBDE76E5EDE2C3D061D861D862D843D878
:1053180043D862D082D062D062D043D862C882C8F3
:1053280041C841C861C0C1A0E8BA0CCC2CC42CC487
:105338008ECC72DD93E593ED32ED93ED93E532DD9E
:1053480052E593ED31E5F0DCAFCC4EC46AA3099386
:10535800887A887AA87A887AA882A882A97A887AA4
:10536800887A877A66724672467246722662065A4A
:1053780013B579DE38CEF7BD041920002E3BF47C36
:10538800306C3084CC83698B078B269B269B269BAD
:105398002793078BE78AE68AA5826482A582C58A55
:1053A800E68A069307930693079307930793069352
:1053B800E68AE6920693279B479B68A31CE71CE7AF
:1053C8001CE73CE73CE73CE73CE73DE75DEF5DEF8A
:1053D8007DEF7DEF7DEF7DEF5CEF5CEF1CEF3CEF49
:1053E800D8DE76D697DE98DE78DE37D6D5C573B5A3
:1053F80032ADF6C5BADEFCE61DE71CE79CF6BBE657
:1054080059D6D4DC09D283D081D861D862D843E098
:1054180043E062D082D062D063D843D862D061C8FA
:1054280061C861C861B8E5B90CCC8DCC8ED48ED476
:1054380030DDB3DDF4E5F5F5D5ED35EEB4ED52E547
:1054480072E5B3ED92ED31E5D0D4AFCC0DBC8BA3B2
:10545800A882677A887AA87AC982A87AA97AA97A62
:10546800887A47724672467246724772266A27627F
:10547800CE9338D618CEF7BD452141006F3BF57C59
:10548800B18C6F9C698B269347A3059B069B269B33
:10549800079306930693C68AA58A8582C58AE68AF3
:1054A80026932793279B279B279B479B479B279BB5
:1054B8000793069306930693479B689B1CE71CE794
:1054C8001CE73CE73CE73CE73CE73DE73DE77EEF90
:1054D8007DEF5DEF7DEF7DEF5DEF7DEF5EF71BE725
:1054E80039EF96DE35CE98DE79DE17D657D694BDDD
:1054F80011ADB5BD9ADEFCE61DE71CE79CF67ADE29
:10550800F8CD31CC26C162D081E061D042D823E009
:1055180023E062D881D062D063D844D842D041C851
:1055280081C861C881B8E9D2EFE4EFD46ED4CFE482
:10553800B3EDF3DD35E656F657F676EED4F573E5BA
:1055480072E5D4F5D4F572ED31E531DDD0CC2EBC61
:105558000A93888267726772C982C982887AC98207
:10556800887A477267724672266A0562266A0662F8
:105578000B7B37D638CEB6B5C72941003354568D84
:10558800D194AA8B279366AB46AB06A3269B269B92
:1055980006930693E692C592A58AA58AC58A0693BC
:1055A800269B479B479B279B479B479B88A3679BBB
:1055B800279B0693E68AE68A2693479B1CE71CE707
:1055C8001CE71CE73CE73CE73CE73CE75DEF5DEFA9
:1055D8007DEF7DEF7DEF5DEF5DEF5DEF7DEF3CE70C
:1055E8005CEF1AE756CE15CE56D656D636D6F5CD3A
:1055F80033BD54B579D63CEF3CE71CE7BDE63AE647
:10560800F4EC8BDA83D021E041E082D0A2C883C8D1
:1056180043D842E062D882D062D062D082C021D022
:1056280042D861B8A4A94DDC10EDCFE48ECC51DD91
:10563800D3EDF5F515F656EE56EE57FE16EE16EEC8
:10564800F6EDF6F594ED73E594ED52E5F0DCD0D483
:10565800ECB3878A257A8782C98AA882E882C882B9
:10566800A87A677A257A45726672266A076AE669B1
:105678008872B6CDDBDE19B6C83121002E7C72AD3A
:10568800EB8B898BA9A388AB46A367A3469B26937C
:10569800268B278B0693E692C592A59A06932793A5
:1056A800479B689B489B479B679B689BA8A388A3CD
:1056B800479B0693C58AC58A06934793FCE6FCE692
:1056C8001CE71CE73CE73CE73CE73CE73DEF5DEFC8
:1056D8005DEF7DEF7DEF7DEF7DEF7DEF7DEF7CEF83
:1056E8005CEF3BE798D616CEF5C515CE36D616D65E
:1056F80074BD74BD79D61CE71CE71CDFBDE6F9E56F
:1057080072DC08CA62D041E061D8A2D0A2C883D0B6
:1057180063D842E062D862D062D062D0A2C842D0D8
:1057280022D081B8A8C2CFEC30EDCFDC8ECC51DDD1
:10573800F4F515FE36F656EE56F657FED9FE78FE07
:1057480036F637FE16FEF5F5D4F532E511E511DD2E
:105758008ECC4AA36682667AA882E98A088BE98297
:10576800C982877A25722572466A2662276AC561C8
:10577800C982D2AC3CE719B6662182106F8CD09CE6
:10578800CB8BCA9BA9A3A8AB67AB46A3269B269342
:105798002793479327930693E59AC59A0693279BE1
:1057A800689B689B689B679B689B88A3A9A388A341
:1057B800479BE68AA582A582E68A2793FBE6FCE654
:1057C8001CE71CE71CE73CE73CE73CE75DEF5DEFC7
:1057D8005DEF7DEF5DEF5DEF5DEF5DEF7DEF9DEFE1
:1057E8007CEF5BEFFAE636CEB4BDD4C516D636D616
:1057F800B5C5B5C599DE1CE71CE7FCDE9CE698DD5F
:105808008FD366C142C842E061D882D082C883D0B3
:1058180063D842D862D862D062D062D082C842D0FF
:1058280021C8E2B0ECE330ED30EDAEDCAED492E569
:1058380015FE15FE15F616F636F657FE77FE57FED8
:1058480037F636FEF6F5B4EDB4ED52E572ED51E5F6
:1058580010DD0DBCC892467AA88A0993298B098B5A
:10586800098BA78245722472456A2662E661E66161
:10587800887AB1A47DEF79C6E310E3188F9C0D9464
:10588800AB93EBA3CAABA9B3A8B346A3269B2693B5
:1058980027934793479B269B069BE69A279B479B04
:1058A80068A3689B679B489B68A389A3A9A388A34F
:1058B8004793C68A847A857AC682078BFCE6FCE61B
:1058C8001CE71CE71CE73CE73CE71CE75DEF5DEFE6
:1058D8007DEF5DEF5DEF5DEF5DEF5DEF7DEF7DEF00
:1058E8007DEF7CF73BEF98DEF5C594BDD5C516CEA8
:1058F800F6CDF7CDBADE3CEF1CE7FCDE7BE616DD25
:10590800EDC2E5B842D062E061D882D082D083D0BF
:1059180062D862D862D862D062D042D062C862C807
:1059280061C0A5B98EEC30E50FE58EDCEFDCB2ED99
:1059380014FE15FEF5FDF5F5F5F516FEF5ED36F652
:1059480056FE36FED5F594ED94EDB4F5B3F551E574
:1059580011DD8ECC4AA3878AA88AE992288B298BE5
:10596800098BA88245724572456A4662E661E66916
:10597800066290A45CEF59C6810865316EACAB93A2
:10598800CB9BEBABEAB3C9B3C8B347A3269B27931A
:105998002793679B679B479B279B269B679B68A3CF
:1059A80088A368A3479B479B689B89A388A3689B98
:1059B8002793A5824472647AA582E78A1CE71CE7CC
:1059C8001CE71CE71CE71CE71CE71CE75DEF5DEF25
:1059D8005DEF5DEF5DEF5DEF5DEF5DEF7EEF7DEF1E
:1059E8009DF79DF73BEF1AE778D694BD74BDD5C5F2
:1059F800F6C558CEFBE63CEF1CE7FCDE3AE6B4D42D
:105A08004BC2A4C062D081D881D862D082D082D063
:105A180062D862D882D082D062D062D062D061C8A7
:105A2800C2B8C8CACEE42FE5EFE46DD410E5B2EDF4
:105A380014FEF5FDF5FDD5FDD5F5F5FDF5F5F5F506
:105A480015F6F6F5F5F5D4F594EDB4F5F4FD52E553
:105A580031E5CFD4CBB3E892C892C8922893298B6A
:105A6800098BA882657A4572666A4662266AE56984
:105A7800C5618C8B3BEFD6B500004852ECAB8AA3CE
:105A8800EBABEAB30ABCC9BBA8B367AB27A3279B98
:105A9800279B489B689B67A3679B469B67A388A334
:105AA80088A368A3479B279B689B88A3689B489308
:105AB800E68A657A236A4472857AE782FCE6FCE620
:105AC8001CE71CE71CE71CE73CE71CE73CE75DEF2D
